:020000040000FA
:040000005FEF7FF03F
:10FE8A001F0E206E000E216E74EC7FF04BEF7FF098
:04FE9A0000EF00F085
:10FE9F00800F810F820F830F840F890F8A0F8B0FB3
:10FEAF008C0F8D0F920F930F940F950F960F029F3C
:10FEBF000EF66EFE0EF76E000EF86E00EE01F010ED
:10FECF00EE1FF00900F5CFEEFFE550E150FAE1002B
:10FEDF000EF86E000145EF7FF020502110D8A47B63
:10FEEF00EF7FF07DEF7FF0DEEF7FF0FFEF7FF02011
:10FEFF00C0D9FF21C0DAFFDF30E832E832070B222A
:10FF0F006E010E236E222A8FEF7FF0D890233622B8
:10FF1F002E8DEF7FF02350FF0A246E20C0D9FF21D2
:10FF2F00C0DAFFDF50070B256E2550020D150EF3BB
:10FF3F0024D96E000EF420DA6EDECF26F0DDCF2747
:10FF4F00F026C0D9FF27C0DAFF2450DF16FFEF7F5E
:10FF5F00F020C0D9FF21C0DAFFDF30E832E83207E6
:10FF6F000B226E010E236E222AC0EF7FF0D8902352
:10FF7F0036222EBEEF7FF020C0D9FF21C0DAFFDF7F
:10FF8F0050070B246E2450020D150EF324D96E006A
:10FF9F000EF420DA6EDECF25F0DDCF26F025C0D9A6
:10FFAF00FF26C0DAFF2350DF12FFEF7FF020C0D90A
:10FFBF00FF21C0DAFFDFBCE7EF7FF0EAEF7FF00150
:10FFCF000EEBEF7FF0000E226E236A2350000AD84B
:10FFDF00B4F4EF7FF07DEF7FF02250000AD8B47FAA
:10FFEF00EF7FF0010AD8B4B0EF7FF07DEF7FF01212
:01FFFF000001
:020000040020DA
:08000000FFFFFFFFFFFFFFFF00
:020000040030CA
:0E000000FF02091EFF8181FF0FC00FE00F40BD
:00000001FF
