:020000040000FA
:0400000092EF7DF00E
:10FAEA00290E386E000E396E0DEC7EF0486E12004B
:10FAFB00800F810F820F830F840F890F8A0F8B0F5B
:10FB0B008C0F8D0F920F930F940F950F960FCB01B8
:10FB1B00014301000101120202FB0EF66EFA0EF711
:10FB2B006E000EF86E00EE01F010EE29F00900F5F4
:10FB3B00CFEEFFE550E150FAE100EE3FF0090EEE9B
:10FB4B006AE806FDE1000EF86E0001ADEF7DF07581
:10FB5B00EC7DF0290E346E000E356E89EC7EF0488C
:10FB6B006E060E3E6E130E3D6EAE0EE82EFED73DAC
:10FB7B002EFCD73E2EFAD7290E346E000E356E4A68
:10FB8B00EC7EF0486E060E3E6E130E3D6EAE0EE82A
:10FB9B002EFED73D2EFCD73E2EFAD7AFEF7DF000D1
:10FBAB00EF00F034503510D8B4DEEF7DF0E0EF7D90
:10FBBB00F0F1EF7DF034C0D9FF35C0DAFFDF30E86C
:10FBCB0032E832070B366E070E3664EFEF7DF0F13D
:10FBDB00EF7DF0F5EF7DF0000E376E0BEF7EF0341E
:10FBEB00C02AF035C02BF05EEC7FF0376E34C02AA4
:10FBFB00F035C02BF034C0D9FF35C0DAFF000EDF73
:10FC0B00BE010E2C6EC8EC7EF0376E3750120038EA
:10FC1B00503910D8A414EF7EF016EF7EF01AEF7E59
:10FC2B00F0000E3B6E48EF7EF043C03CF038C0D97D
:10FC3B00FF39C0DAFFDF500F0B3A6E3C503A18F821
:10FC4B000B3A183C6E38C0D9FF39C0DAFFDF3807E2
:10FC5B000B3A6E3A463A463A463C503A18C70B3A7C
:10FC6B00183C6E3C9C38C0D9FF39C0DAFFDFAE02BE
:10FC7B00D03C8E01D03C9E3C0E346E000E356ED7C0
:10FC8B00EC7DF03B6E3B50120034503510D8A45134
:10FC9B00EF7EF053EF7EF057EF7EF0000E376E875E
:10FCAB00EF7EF041C038F034C0D9FF35C0DAFFDF4A
:10FCBB00500F0B366E38503618F80B3618386E342A
:10FCCB00C0D9FF35C0DAFFDF38070B366E36463644
:10FCDB0046364638503618C70B3618386E389C34B3
:10FCEB00C0D9FF35C0DAFFDFAE02D0388E01D03875
:10FCFB009E380E2A6E000E2B6E000E2C6EC8EC7EFC
:10FD0B00F0376E3750120034503510D8A490EF7E78
:10FD1B00F092EF7EF096EF7EF0000E376EC6EF7E20
:10FD2B00F042C038F034C0D9FF35C0DAFFDF500FD6
:10FD3B000B366E38503618F80B3618386E34C0D96F
:10FD4B00FF35C0DAFFDF38070B366E3646364636E0
:10FD5B004638503618C70B3618386E389C34C0D915
:10FD6B00FF35C0DAFFDFAE02D0388E01D0389E38B7
:10FD7B000E2A6E000E2B6E010E2C6EC8EC7EF03729
:10FD8B006E37501200010E336E2A502B10D8B4D19F
:10FD9B00EF7EF0D3EF7EF0E4EF7EF02AC0D9FF2B9D
:10FDAB00C0DAFFDF30E832E832070B2D6E070E2D7D
:10FDBB0064E2EF7EF0E4EF7EF047EF7FF0000E336E
:10FDCB006E5CEF7FF02AC0D9FF2BC0DAFFDF30E883
:10FDDB0032E832070B2D6E010E2E6E2D2AF8EF7EB8
:10FDEB00F0D8902E362D2EF6EF7EF02E50FF0A2FE8
:10FDFB006E2AC0D9FF2BC0DAFFDF50070B306E30F5
:10FE0B0050020D0B0EF324D96E000EF420DA6EDEC9
:10FE1B00CF31F0DDCF32F031C0D9FF32C0DAFF2F56
:10FE2B0050DF165CEF7FF02AC0D9FF2BC0DAFFDF63
:10FE3B0030E832E832070B2D6E010E2E6E2D2A297B
:10FE4B00EF7FF0D8902E362D2E27EF7FF02AC0D9DA
:10FE5B00FF2BC0DAFFDF50070B2F6E2F50020D0B5D
:10FE6B000EF324D96E000EF420DA6EDECF30F0DD07
:10FE7B00CF31F030C0D9FF31C0DAFF2E50DF125C2A
:10FE8B00EF7FF02C502D6E2E6A2E50000AD8B451F5
:10FE9B00EF7FF0E4EF7EF02D50000AD8B4E8EF7E50
:10FEAB00F0010AD8B419EF7FF0E4EF7EF033501273
:10FEBB0000010E326E2A502B10D8B467EF7FF06919
:10FECB00EF7FF07AEF7FF02AC0D9FF2BC0DAFFDF8C
:10FEDB0030E832E832070B2C6E070E2C6478EF7F7C
:10FEEB00F07AEF7FF0DDEF7FF0000E326EFEEF7FEA
:10FEFB00F02AC0D9FF2BC0DAFFDF30E832E8320737
:10FF0B000B2C6E010E2D6E2C2A8EEF7FF0D8902DC0
:10FF1B00362C2E8CEF7FF02D50FF0A2E6E2AC0D977
:10FF2B00FF2BC0DAFFDF50070B2F6E2F50020D1582
:10FF3B000EF324D96E000EF420DA6EDECF30F0DD36
:10FF4B00CF31F030C0D9FF31C0DAFF2E50DF16FEB3
:10FF5B00EF7FF02AC0D9FF2BC0DAFFDF30E832E8A1
:10FF6B0032070B2C6E010E2D6E2C2ABFEF7FF0D8B3
:10FF7B00902D362C2EBDEF7FF02AC0D9FF2BC0DA87
:10FF8B00FFDF50070B2E6E2E50020D150EF324D9EA
:10FF9B006E000EF420DA6EDECF2FF0DDCF30F02FB7
:10FFAB00C0D9FF30C0DAFF2D50DF12FEEF7FF02AF1
:10FFBB00C0D9FF2BC0DAFFDFBCE6EF7FF0E9EF7FA4
:10FFCB00F0010EEAEF7FF0000E2C6E2D6A2D500023
:10FFDB000AD8B4F3EF7FF07AEF7FF02C50000AD8F9
:10FFEB00B47EEF7FF0010AD8B4AFEF7FF07AEF7FEA
:05FFFB00F0325012007D
:020000040020DA
:08000000FFFFFFFFFFFFFFFF00
:020000040030CA
:0E000000FF02091EFF8181FF0FC00FE00F40BD
:00000001FF
