:020000040000FA
:0400000086EF7FF018
:10FEA800000E226E020EBAEC7FF0296EAA0E226EA8
:0AFEB800020EDDEC7FF0296E12004F
:10FEC300800F810F820F830F840F890F8A0F8B0F8F
:10FED3008C0F8D0F920F930F940F950F960F120A9D
:10FEE3008254EC7FF0020E9CEC7FF0060E286E131A
:10FEF3000E276EAE0EE82EFED7272EFCD7282EFA3D
:10FF0300D774EF7FF000EF00F0C30EF66EFE0EF72E
:10FF13006E000EF86E00EE01F010EE21F00900F510
:10FF2300CFEEFFE550E150FAE12A6A000EF86E00C9
:10FF33000172EF7FF0256E040E2564A3EF7FF0A519
:10FF4300EF7FF0A7EF7FF0B9EF7FF02550020D0BA5
:10FF53000EF324D96E000EF420DA6EDECF22F0DD2C
:10FF6300CF23F022C0D9FF23C0DAFFFF0EDF1A121E
:10FF730000266E010E256E040E2664C3EF7FF0C5C6
:10FF8300EF7FF0C9EF7FF0000E256EDBEF7FF026E9
:10FF930050020D150EF324D96E000EF420DA6EDE36
:10FFA300CF23F0DDCF24F023C0D9FF24C0DAFF2212
:10FFB300C0DFFF25501200266E010E256E040E26AB
:10FFC30064E6EF7FF0E8EF7FF0ECEF7FF0000E25C3
:10FFD3006EFEEF7FF02650020D0B0EF324D96E0058
:10FFE3000EF420DA6EDECF23F0DDCF24F023C0D968
:0DFFF300FF24C0DAFF22C0DFFF25501200FE
:020000040020DA
:08000000FFFFFFFFFFFFFFFF00
:020000040030CA
:0E000000FF02091EFF8181FF0FC00FE00F40BD
:00000001FF
