:020000040000FA
:0400000054EF7DF04C
:10FA8600800F810F820F830F840F890F8A0F8B0FD0
:10FA96008C0F8D0F920F930F940F950F960FB2A2A6
:10FAA6009282860EF66EFA0EF76E000EF86E00EE75
:10FAB60001F010EE22F00900F5CFEEFFE550E1501F
:10FAC600FAE13B6A3A6A396A386A000EF86E000152
:10FAD6008AEF7DF0220E316E000E326E7CEC7EF0E7
:10FAE6003C6E210E316E000E326E7CEC7EF03C6E6A
:10FAF600200E316E000E326E7CEC7EF03C6E1F0ED8
:10FB0600316E000E326E7CEC7EF03C6E12006DECB7
:10FB16007DF0220E2D6E000E2E6E32EC7EF0060E5D
:10FB2600376E130E366EAE0EE82EFED7362EFCD787
:10FB3600372EFAD7220E2D6E000E2E6EE8EC7DF0D3
:10FB4600060E376E130E366EAE0EE82EFED7362E26
:10FB5600FCD7372EFAD78CEF7DF000EF00F02D5052
:10FB66002E10D8B4B9EF7DF0BBEF7DF0CCEF7DF071
:10FB76002DC0D9FF2EC0DAFFDF30E832E832070B9E
:10FB86002F6E070E2F64CAEF7DF0CCEF7DF0D0EF1D
:10FB96007DF0000E306EE6EF7DF02DC023F02EC016
:10FBA60024F05EEC7FF0306E2DC023F02EC024F0E2
:10FBB6002DC0D9FF2EC0DAFF000EDFBE010E256E66
:10FBC600C8EC7EF0306E305012002D502E10D8B496
:10FBD600EFEF7DF0F1EF7DF000EF7EF02DC0D9FF65
:10FBE6002EC0DAFFDF38070B2F6E070E2F64FEEFED
:10FBF6007DF000EF7EF002EF7EF031EF7EF039C04F
:10FC060031F02DC0D9FF2EC0DAFFDF500F0B2F6E5B
:10FC160031502F18F80B2F18316E2DC0D9FF2EC07A
:10FC2600DAFFDF38070B2F6E2F462F462F4631504F
:10FC36002F18C70B2F18316E319C2DC0D9FF2EC03F
:10FC4600DAFFDFAE02D0318E01D0319E310E236E47
:10FC5600000E246E000E256EC8EC7EF012002D50AC
:10FC66002E10D8B439EF7EF03BEF7EF04AEF7EF0EF
:10FC76002DC0D9FF2EC0DAFFDF38070B2F6E070E17
:10FC86002F6448EF7EF04AEF7EF04CEF7EF07BEF7C
:10FC96007EF03AC031F02DC0D9FF2EC0DAFFDF501A
:10FCA6000F0B2F6E31502F18F80B2F18316E2DC0F9
:10FCB600D9FF2EC0DAFFDF38070B2F6E2F462F46EF
:10FCC6002F4631502F18C70B2F18316E319C2DC07F
:10FCD600D9FF2EC0DAFFDFAE02D0318E01D0319EC1
:10FCE600310E236E000E246E010E256EC8EC7EF0DA
:10FCF600120031503210D8B483EF7EF085EF7EF0DB
:10FD060094EF7EF031C0D9FF32C0DAFFDF38070B3F
:10FD1600336E070E336492EF7EF094EF7EF098EF29
:10FD26007EF0000E346EC6EF7EF03BC035F031C07B
:10FD3600D9FF32C0DAFFDF500F0B336E3550331860
:10FD4600F80B3318356E31C0D9FF32C0DAFFDF3811
:10FD5600070B336E33463346334635503318C70BDD
:10FD66003318356E359C31C0D9FF32C0DAFFDFAEAD
:10FD760002D0358E01D0359E350E2D6E000E2E6EBC
:10FD8600B2EC7DF0346E34501200010E2C6E23500E
:10FD96002410D8B4D1EF7EF0D3EF7EF0E4EF7EF0FE
:10FDA60023C0D9FF24C0DAFFDF30E832E832070B80
:10FDB600266E070E2664E2EF7EF0E4EF7EF047EF54
:10FDC6007FF0000E2C6E5CEF7FF023C0D9FF24C0BD
:10FDD600DAFFDF30E832E832070B266E010E276EB7
:10FDE600262AF8EF7EF0D8902736262EF6EF7EF0FC
:10FDF6002750FF0A286E23C0D9FF24C0DAFFDF5040
:10FE0600070B296E2950020D0B0EF324D96E000E36
:10FE1600F420DA6EDECF2AF0DDCF2BF02AC0D9FF30
:10FE26002BC0DAFF2850DF165CEF7FF023C0D9FF26
:10FE360024C0DAFFDF30E832E832070B266E010E07
:10FE4600276E262A29EF7FF0D8902736262E27EF11
:10FE56007FF023C0D9FF24C0DAFFDF50070B286EDE
:10FE66002850020D0B0EF324D96E000EF420DA6E24
:10FE7600DECF29F0DDCF2AF029C0D9FF2AC0DAFF6C
:10FE86002750DF125CEF7FF02550266E276A275039
:10FE9600000AD8B451EF7FF0E4EF7EF02650000A56
:10FEA600D8B4E8EF7EF0010AD8B419EF7FF0E4EF9A
:10FEB6007EF02C501200010E2B6E23502410D8B465
:10FEC60067EF7FF069EF7FF07AEF7FF023C0D9FF0D
:10FED60024C0DAFFDF30E832E832070B256E070E62
:10FEE600256478EF7FF07AEF7FF0DDEF7FF0000E8C
:10FEF6002B6EFEEF7FF023C0D9FF24C0DAFFDF3080
:10FF0600E832E832070B256E010E266E252A8EEFA3
:10FF16007FF0D8902636252E8CEF7FF02650FF0AEC
:10FF2600276E23C0D9FF24C0DAFFDF50070B286EE7
:10FF36002850020D150EF324D96E000EF420DA6E49
:10FF4600DECF29F0DDCF2AF029C0D9FF2AC0DAFF9B
:10FF56002750DF16FEEF7FF023C0D9FF24C0DAFF5B
:10FF6600DF30E832E832070B256E010E266E252AB1
:10FF7600BFEF7FF0D8902636252EBDEF7FF023C049
:10FF8600D9FF24C0DAFFDF50070B276E2750020D7A
:10FF9600150EF324D96E000EF420DA6EDECF28F0AB
:10FFA600DDCF29F028C0D9FF29C0DAFF2650DF129D
:10FFB600FEEF7FF023C0D9FF24C0DAFFDFBCE6EFF7
:10FFC6007FF0E9EF7FF0010EEAEF7FF0000E256E7D
:10FFD600266A2650000AD8B4F3EF7FF07AEF7FF056
:10FFE6002550000AD8B47EEF7FF0010AD8B4AFEFEF
:0AFFF6007FF07AEF7FF02B5012002D
:020000040020DA
:08000000FFFFFFFFFFFFFFFF00
:020000040030CA
:0E000000FF02091EFF8181FF0FC00FE00F40BD
:00000001FF
